{
  "contractName": "Adoption",
  "abi": [
    {
      "inputs": [],
      "payable": false,
      "stateMutability": "nonpayable",
      "type": "constructor"
    },
    {
      "constant": true,
      "inputs": [
        {
          "internalType": "uint256",
          "name": "",
          "type": "uint256"
        }
      ],
      "name": "comprador",
      "outputs": [
        {
          "internalType": "address",
          "name": "",
          "type": "address"
        }
      ],
      "payable": false,
      "stateMutability": "view",
      "type": "function"
    },
    {
      "constant": false,
      "inputs": [
        {
          "internalType": "uint256",
          "name": "petId",
          "type": "uint256"
        }
      ],
      "name": "adopt",
      "outputs": [
        {
          "internalType": "uint256",
          "name": "",
          "type": "uint256"
        }
      ],
      "payable": true,
      "stateMutability": "payable",
      "type": "function"
    },
    {
      "constant": true,
      "inputs": [],
      "name": "getAdopters",
      "outputs": [
        {
          "internalType": "address[16]",
          "name": "",
          "type": "address[16]"
        }
      ],
      "payable": false,
      "stateMutability": "view",
      "type": "function"
    }
  ],
  "bytecode": "0x608060405234801561001057600080fd5b50336000806101000a81548173ffffffffffffffffffffffffffffffffffffffff021916908373ffffffffffffffffffffffffffffffffffffffff16021790555061033b806100606000396000f3fe6080604052600436106100345760003560e01c80633de4eb17146100395780638588b2c51461008c578063ae1075e4146100ce575b600080fd5b34801561004557600080fd5b5061004e610149565b6040518082601060200280838360005b8381101561007957808201518184015260208101905061005e565b5050505090500191505060405180910390f35b6100b8600480360360208110156100a257600080fd5b81019080803590602001909291905050506101ca565b6040518082815260200191505060405180910390f35b3480156100da57600080fd5b50610107600480360360208110156100f157600080fd5b81019080803590602001909291905050506102b0565b604051808273ffffffffffffffffffffffffffffffffffffffff1673ffffffffffffffffffffffffffffffffffffffff16815260200191505060405180910390f35b6101516102e3565b60016010806020026040519081016040528092919082601080156101c0576020028201915b8160009054906101000a900473ffffffffffffffffffffffffffffffffffffffff1673ffffffffffffffffffffffffffffffffffffffff1681526020019060010190808311610176575b5050505050905090565b60008082101580156101dd5750600f8211155b6101e657600080fd5b600034116101f357600080fd5b336001836010811061020157fe5b0160006101000a81548173ffffffffffffffffffffffffffffffffffffffff021916908373ffffffffffffffffffffffffffffffffffffffff1602179055506000809054906101000a900473ffffffffffffffffffffffffffffffffffffffff1673ffffffffffffffffffffffffffffffffffffffff166108fc479081150290604051600060405180830381858888f193505050501580156102a7573d6000803e3d6000fd5b50819050919050565b600181601081106102bd57fe5b016000915054906101000a900473ffffffffffffffffffffffffffffffffffffffff1681565b60405180610200016040528060109060208202803883398082019150509050509056fea265627a7a723158207e26674ced3f01925e27108df49accca3f8295b770a41e97a61ce8a5b843d0f964736f6c63430005100032",
  "source": "pragma solidity ^0.5.0;\n\ncontract Adoption {\n    //Variável para armazenar o endereço do vendendor/adm contrato.\n    address payable private vendendor;\n\n    //Variável para armazenar o endereço do comprador.\n    address[16] public comprador;\n\n    //Construtor para adicionar o vendedor no deployment do contrato, assim capturando o seu endereço.\n    constructor() public {\n        //Faz do vendendor a pessoa que gerencia o contrato.\n        vendendor = msg.sender;\n    }\n\n    //Funcao para fazer a transacao de venda de um Ape.\n    function adopt(uint petId) public payable returns (uint) {\n        //Requer o id do Ape no range de 0 - 15.\n        require(petId >= 0 && petId <= 15);\n        //Requer um valor de ether para comprar o Ape.\n        require(msg.value > 0 ether);\n        //O endereco do comprado vai ser atrelado a venda daquele Ape.\n        comprador[petId] = msg.sender;\n        //O vendedor recebera o seu dionheiro.\n        vendendor.transfer(address(this).balance);\n        //Vai retorna o Ape comprado.\n        return petId;\n    }\n\n    //Funcao que retornara os Ape ja comprados.\n    function getAdopters() public view returns (address[16] memory) {\n        return comprador;\n    }\n\n    // Valida se o participante que está enviando o eth seja o vendendor.\n    modifier restricted() {\n        require(msg.sender == vendendor);\n        _;\n    }\n\n}",
  "sourcePath": "/Users/pedro/Desktop/Pasta Sem Título/BAYC_NFT_Truffle/contracts/Adoption.sol",
  "compiler": {
    "name": "solc",
    "version": "0.5.16+commit.9c3226ce.Emscripten.clang"
  },
  "schemaVersion": "3.4.11",
  "updatedAt": "2022-12-07T20:11:23.203Z",
  "networkType": "ethereum",
  "devdoc": {
    "methods": {}
  },
  "userdoc": {
    "methods": {}
  }
}