{
  "contractName": "Adoption",
  "abi": [
    {
      "payable": true,
      "stateMutability": "payable",
      "type": "fallback"
    },
    {
      "constant": true,
      "inputs": [
        {
          "internalType": "uint256",
          "name": "",
          "type": "uint256"
        }
      ],
      "name": "adopters",
      "outputs": [
        {
          "internalType": "address",
          "name": "",
          "type": "address"
        }
      ],
      "payable": false,
      "stateMutability": "view",
      "type": "function"
    },
    {
      "constant": false,
      "inputs": [],
      "name": "returnEth",
      "outputs": [],
      "payable": true,
      "stateMutability": "payable",
      "type": "function"
    },
    {
      "constant": false,
      "inputs": [
        {
          "internalType": "uint256",
          "name": "petId",
          "type": "uint256"
        }
      ],
      "name": "adopt",
      "outputs": [
        {
          "internalType": "uint256",
          "name": "",
          "type": "uint256"
        }
      ],
      "payable": true,
      "stateMutability": "payable",
      "type": "function"
    },
    {
      "constant": true,
      "inputs": [],
      "name": "getAdopters",
      "outputs": [
        {
          "internalType": "address[16]",
          "name": "",
          "type": "address[16]"
        }
      ],
      "payable": false,
      "stateMutability": "view",
      "type": "function"
    }
  ],
  "bytecode": "0x608060405234801561001057600080fd5b50610335806100206000396000f3fe60806040526004361061003f5760003560e01c80633de4eb171461004157806343ae80d3146100945780638588b2c51461010f578063e3f9ba0e14610151575b005b34801561004d57600080fd5b5061005661015b565b6040518082601060200280838360005b83811015610081578082015181840152602081019050610066565b5050505090500191505060405180910390f35b3480156100a057600080fd5b506100cd600480360360208110156100b757600080fd5b81019080803590602001909291905050506101dc565b604051808273ffffffffffffffffffffffffffffffffffffffff1673ffffffffffffffffffffffffffffffffffffffff16815260200191505060405180910390f35b61013b6004803603602081101561012557600080fd5b810190808035906020019092919050505061020f565b6040518082815260200191505060405180910390f35b610159610294565b005b6101636102dd565b60006010806020026040519081016040528092919082601080156101d2576020028201915b8160009054906101000a900473ffffffffffffffffffffffffffffffffffffffff1673ffffffffffffffffffffffffffffffffffffffff1681526020019060010190808311610188575b5050505050905090565b600081601081106101e957fe5b016000915054906101000a900473ffffffffffffffffffffffffffffffffffffffff1681565b60008082101580156102225750600f8211155b61022b57600080fd5b6722b1c8c1227a0000341461023f57600080fd5b336000836010811061024d57fe5b0160006101000a81548173ffffffffffffffffffffffffffffffffffffffff021916908373ffffffffffffffffffffffffffffffffffffffff160217905550819050919050565b3373ffffffffffffffffffffffffffffffffffffffff166108fc349081150290604051600060405180830381858888f193505050501580156102da573d6000803e3d6000fd5b50565b60405180610200016040528060109060208202803883398082019150509050509056fea265627a7a72315820b59cf41d7dda99cfa9389cadc01b9fe1d29562b158bd3d3b2d715a0cae9f8e0064736f6c63430005100032",
  "source": "pragma solidity ^0.5.0;\r\n\r\ncontract Adoption {\r\n    address[16] public adopters;\r\n\r\n    function returnEth() public payable{\r\n        msg.sender.transfer(msg.value);\r\n    }\r\n\r\n    function adopt(uint petId) public payable returns (uint) {\r\n        require(petId >= 0 && petId <= 15);\r\n        require(msg.value==2.5 ether);\r\n        adopters[petId] = msg.sender;\r\n        return petId;\r\n    }\r\n\r\n    function getAdopters() public view returns (address[16] memory) {\r\n        return adopters;\r\n    }\r\n\r\n    function() external payable{\r\n\r\n    }\r\n\r\n}",
  "sourcePath": "C:\\Users\\Pedro\\Desktop\\Testes\\Mika\\contracts\\Adoption.sol",
  "compiler": {
    "name": "solc",
    "version": "0.5.16+commit.9c3226ce.Emscripten.clang"
  },
  "schemaVersion": "3.4.11",
  "updatedAt": "2022-12-03T20:43:49.538Z",
  "networkType": "ethereum",
  "devdoc": {
    "methods": {}
  },
  "userdoc": {
    "methods": {}
  }
}